{
  "contractName": "Ecommerce",
  "abi": [
    {
      "inputs": [
        {
          "internalType": "uint256",
          "name": "",
          "type": "uint256"
        }
      ],
      "name": "products",
      "outputs": [
        {
          "internalType": "string",
          "name": "title",
          "type": "string"
        },
        {
          "internalType": "uint256",
          "name": "id",
          "type": "uint256"
        },
        {
          "internalType": "uint256",
          "name": "price",
          "type": "uint256"
        },
        {
          "internalType": "string",
          "name": "desc",
          "type": "string"
        },
        {
          "internalType": "string",
          "name": "img",
          "type": "string"
        },
        {
          "internalType": "address payable",
          "name": "seller",
          "type": "address"
        },
        {
          "internalType": "address payable",
          "name": "buyer",
          "type": "address"
        },
        {
          "internalType": "bool",
          "name": "delivered",
          "type": "bool"
        }
      ],
      "stateMutability": "view",
      "type": "function",
      "constant": true
    },
    {
      "inputs": [
        {
          "internalType": "string",
          "name": "title1",
          "type": "string"
        },
        {
          "internalType": "uint256",
          "name": "price1",
          "type": "uint256"
        },
        {
          "internalType": "string",
          "name": "desc1",
          "type": "string"
        },
        {
          "internalType": "string",
          "name": "img1",
          "type": "string"
        }
      ],
      "name": "registerProduct",
      "outputs": [],
      "stateMutability": "nonpayable",
      "type": "function"
    },
    {
      "inputs": [
        {
          "internalType": "uint256",
          "name": "id1",
          "type": "uint256"
        }
      ],
      "name": "buy",
      "outputs": [],
      "stateMutability": "payable",
      "type": "function",
      "payable": true
    },
    {
      "inputs": [
        {
          "internalType": "uint256",
          "name": "id1",
          "type": "uint256"
        }
      ],
      "name": "delivery",
      "outputs": [],
      "stateMutability": "payable",
      "type": "function",
      "payable": true
    },
    {
      "inputs": [
        {
          "internalType": "address",
          "name": "acc",
          "type": "address"
        }
      ],
      "name": "getBalance",
      "outputs": [
        {
          "internalType": "uint256",
          "name": "",
          "type": "uint256"
        }
      ],
      "stateMutability": "view",
      "type": "function",
      "constant": true
    },
    {
      "inputs": [],
      "name": "getProducts",
      "outputs": [
        {
          "components": [
            {
              "internalType": "string",
              "name": "title",
              "type": "string"
            },
            {
              "internalType": "uint256",
              "name": "id",
              "type": "uint256"
            },
            {
              "internalType": "uint256",
              "name": "price",
              "type": "uint256"
            },
            {
              "internalType": "string",
              "name": "desc",
              "type": "string"
            },
            {
              "internalType": "string",
              "name": "img",
              "type": "string"
            },
            {
              "internalType": "address payable",
              "name": "seller",
              "type": "address"
            },
            {
              "internalType": "address payable",
              "name": "buyer",
              "type": "address"
            },
            {
              "internalType": "bool",
              "name": "delivered",
              "type": "bool"
            }
          ],
          "internalType": "struct Ecommerce.Product[]",
          "name": "",
          "type": "tuple[]"
        }
      ],
      "stateMutability": "view",
      "type": "function",
      "constant": true
    }
  ],
  "bytecode": "0x60806040526000805534801561001457600080fd5b506119a0806100246000396000f3fe6080604052600436106100555760003560e01c8063045ac0301461005a5780631144fd72146100835780637acc0b201461009f578063c29b2f20146100e3578063d96a094a1461010e578063f8b2cb4f1461012a575b600080fd5b34801561006657600080fd5b50610081600480360381019061007c9190610e5e565b610167565b005b61009d60048036038101906100989190610f19565b61037e565b005b3480156100ab57600080fd5b506100c660048036038101906100c19190610f19565b610522565b6040516100da989796959493929190611030565b60405180910390f35b3480156100ef57600080fd5b506100f861075f565b60405161010591906112ba565b60405180910390f35b61012860048036038101906101239190610f19565b610a50565b005b34801561013657600080fd5b50610151600480360381019061014c919061131a565b610c3a565b60405161015e9190611347565b60405180910390f35b600083116101aa576040517f08c379a00000000000000000000000000000000000000000000000000000000081526004016101a1906113ae565b60405180910390fd5b6101b2610c5b565b848160000181905250670de0b6b3a7640000846101cf91906113fd565b816040018181525050828160600181905250338160a0019073ffffffffffffffffffffffffffffffffffffffff16908173ffffffffffffffffffffffffffffffffffffffff16815250506000548160200181815250508181608001819052506000808154809291906102409061143f565b9190505550600181908060018154018082558091505060019003906000526020600020906007020160009091909190915060008201518160000190816102869190611693565b50602082015181600101556040820151816002015560608201518160030190816102b09190611693565b5060808201518160040190816102c69190611693565b5060a08201518160050160006101000a81548173ffffffffffffffffffffffffffffffffffffffff021916908373ffffffffffffffffffffffffffffffffffffffff16021790555060c08201518160060160006101000a81548173ffffffffffffffffffffffffffffffffffffffff021916908373ffffffffffffffffffffffffffffffffffffffff16021790555060e08201518160060160146101000a81548160ff02191690831515021790555050505050505050565b3373ffffffffffffffffffffffffffffffffffffffff16600182815481106103a9576103a8611765565b5b906000526020600020906007020160060160009054906101000a900473ffffffffffffffffffffffffffffffffffffffff1673ffffffffffffffffffffffffffffffffffffffff1614610431576040517f08c379a000000000000000000000000000000000000000000000000000000000815260040161042890611806565b60405180910390fd5b600180828154811061044657610445611765565b5b906000526020600020906007020160060160146101000a81548160ff0219169083151502179055506001818154811061048257610481611765565b5b906000526020600020906007020160050160009054906101000a900473ffffffffffffffffffffffffffffffffffffffff1673ffffffffffffffffffffffffffffffffffffffff166108fc600183815481106104e1576104e0611765565b5b9060005260206000209060070201600201549081150290604051600060405180830381858888f1935050505015801561051e573d6000803e3d6000fd5b5050565b6001818154811061053257600080fd5b9060005260206000209060070201600091509050806000018054610555906114b6565b80601f0160208091040260200160405190810160405280929190818152602001828054610581906114b6565b80156105ce5780601f106105a3576101008083540402835291602001916105ce565b820191906000526020600020905b8154815290600101906020018083116105b157829003601f168201915b5050505050908060010154908060020154908060030180546105ef906114b6565b80601f016020809104026020016040519081016040528092919081815260200182805461061b906114b6565b80156106685780601f1061063d57610100808354040283529160200191610668565b820191906000526020600020905b81548152906001019060200180831161064b57829003601f168201915b50505050509080600401805461067d906114b6565b80601f01602080910402602001604051908101604052809291908181526020018280546106a9906114b6565b80156106f65780601f106106cb576101008083540402835291602001916106f6565b820191906000526020600020905b8154815290600101906020018083116106d957829003601f168201915b5050505050908060050160009054906101000a900473ffffffffffffffffffffffffffffffffffffffff16908060060160009054906101000a900473ffffffffffffffffffffffffffffffffffffffff16908060060160149054906101000a900460ff16905088565b60606001805480602002602001604051908101604052809291908181526020016000905b82821015610a475783829060005260206000209060070201604051806101000160405290816000820180546107b7906114b6565b80601f01602080910402602001604051908101604052809291908181526020018280546107e3906114b6565b80156108305780601f1061080557610100808354040283529160200191610830565b820191906000526020600020905b81548152906001019060200180831161081357829003601f168201915b50505050508152602001600182015481526020016002820154815260200160038201805461085d906114b6565b80601f0160208091040260200160405190810160405280929190818152602001828054610889906114b6565b80156108d65780601f106108ab576101008083540402835291602001916108d6565b820191906000526020600020905b8154815290600101906020018083116108b957829003601f168201915b505050505081526020016004820180546108ef906114b6565b80601f016020809104026020016040519081016040528092919081815260200182805461091b906114b6565b80156109685780601f1061093d57610100808354040283529160200191610968565b820191906000526020600020905b81548152906001019060200180831161094b57829003601f168201915b505050505081526020016005820160009054906101000a900473ffffffffffffffffffffffffffffffffffffffff1673ffffffffffffffffffffffffffffffffffffffff1673ffffffffffffffffffffffffffffffffffffffff1681526020016006820160009054906101000a900473ffffffffffffffffffffffffffffffffffffffff1673ffffffffffffffffffffffffffffffffffffffff1673ffffffffffffffffffffffffffffffffffffffff1681526020016006820160149054906101000a900460ff16151515158152505081526020019060010190610783565b50505050905090565b60005460018281548110610a6757610a66611765565b5b90600052602060002090600702016001015410610ab9576040517f08c379a0000000000000000000000000000000000000000000000000000000008152600401610ab090611872565b60405180910390fd5b3460018281548110610ace57610acd611765565b5b90600052602060002090600702016002015414610b20576040517f08c379a0000000000000000000000000000000000000000000000000000000008152600401610b17906118de565b60405180910390fd5b3373ffffffffffffffffffffffffffffffffffffffff1660018281548110610b4b57610b4a611765565b5b906000526020600020906007020160050160009054906101000a900473ffffffffffffffffffffffffffffffffffffffff1673ffffffffffffffffffffffffffffffffffffffff1603610bd3576040517f08c379a0000000000000000000000000000000000000000000000000000000008152600401610bca9061194a565b60405180910390fd5b3360018281548110610be857610be7611765565b5b906000526020600020906007020160060160006101000a81548173ffffffffffffffffffffffffffffffffffffffff021916908373ffffffffffffffffffffffffffffffffffffffff16021790555050565b60008173ffffffffffffffffffffffffffffffffffffffff16319050919050565b6040518061010001604052806060815260200160008152602001600081526020016060815260200160608152602001600073ffffffffffffffffffffffffffffffffffffffff168152602001600073ffffffffffffffffffffffffffffffffffffffff1681526020016000151581525090565b6000604051905090565b600080fd5b600080fd5b600080fd5b600080fd5b6000601f19601f8301169050919050565b7f4e487b7100000000000000000000000000000000000000000000000000000000600052604160045260246000fd5b610d3582610cec565b810181811067ffffffffffffffff82111715610d5457610d53610cfd565b5b80604052505050565b6000610d67610cce565b9050610d738282610d2c565b919050565b600067ffffffffffffffff821115610d9357610d92610cfd565b5b610d9c82610cec565b9050602081019050919050565b82818337600083830152505050565b6000610dcb610dc684610d78565b610d5d565b905082815260208101848484011115610de757610de6610ce7565b5b610df2848285610da9565b509392505050565b600082601f830112610e0f57610e0e610ce2565b5b8135610e1f848260208601610db8565b91505092915050565b6000819050919050565b610e3b81610e28565b8114610e4657600080fd5b50565b600081359050610e5881610e32565b92915050565b60008060008060808587031215610e7857610e77610cd8565b5b600085013567ffffffffffffffff811115610e9657610e95610cdd565b5b610ea287828801610dfa565b9450506020610eb387828801610e49565b935050604085013567ffffffffffffffff811115610ed457610ed3610cdd565b5b610ee087828801610dfa565b925050606085013567ffffffffffffffff811115610f0157610f00610cdd565b5b610f0d87828801610dfa565b91505092959194509250565b600060208284031215610f2f57610f2e610cd8565b5b6000610f3d84828501610e49565b91505092915050565b600081519050919050565b600082825260208201905092915050565b60005b83811015610f80578082015181840152602081019050610f65565b60008484015250505050565b6000610f9782610f46565b610fa18185610f51565b9350610fb1818560208601610f62565b610fba81610cec565b840191505092915050565b610fce81610e28565b82525050565b600073ffffffffffffffffffffffffffffffffffffffff82169050919050565b6000610fff82610fd4565b9050919050565b61100f81610ff4565b82525050565b60008115159050919050565b61102a81611015565b82525050565b600061010082019050818103600083015261104b818b610f8c565b905061105a602083018a610fc5565b6110676040830189610fc5565b81810360608301526110798188610f8c565b9050818103608083015261108d8187610f8c565b905061109c60a0830186611006565b6110a960c0830185611006565b6110b660e0830184611021565b9998505050505050505050565b600081519050919050565b600082825260208201905092915050565b6000819050602082019050919050565b600082825260208201905092915050565b600061110b82610f46565b61111581856110ef565b9350611125818560208601610f62565b61112e81610cec565b840191505092915050565b61114281610e28565b82525050565b61115181610ff4565b82525050565b61116081611015565b82525050565b60006101008301600083015184820360008601526111848282611100565b91505060208301516111996020860182611139565b5060408301516111ac6040860182611139565b50606083015184820360608601526111c48282611100565b915050608083015184820360808601526111de8282611100565b91505060a08301516111f360a0860182611148565b5060c083015161120660c0860182611148565b5060e083015161121960e0860182611157565b508091505092915050565b60006112308383611166565b905092915050565b6000602082019050919050565b6000611250826110c3565b61125a81856110ce565b93508360208202850161126c856110df565b8060005b858110156112a857848403895281516112898582611224565b945061129483611238565b925060208a01995050600181019050611270565b50829750879550505050505092915050565b600060208201905081810360008301526112d48184611245565b905092915050565b60006112e782610fd4565b9050919050565b6112f7816112dc565b811461130257600080fd5b50565b600081359050611314816112ee565b92915050565b6000602082840312156113305761132f610cd8565b5b600061133e84828501611305565b91505092915050565b600060208201905061135c6000830184610fc5565b92915050565b7f50726963652073686f756c64206e6f74206265207a65726f2000000000000000600082015250565b6000611398601983610f51565b91506113a382611362565b602082019050919050565b600060208201905081810360008301526113c78161138b565b9050919050565b7f4e487b7100000000000000000000000000000000000000000000000000000000600052601160045260246000fd5b600061140882610e28565b915061141383610e28565b925082820261142181610e28565b91508282048414831517611438576114376113ce565b5b5092915050565b600061144a82610e28565b91507fffffffffffffffffffffffffffffffffffffffffffffffffffffffffffffffff820361147c5761147b6113ce565b5b600182019050919050565b7f4e487b7100000000000000000000000000000000000000000000000000000000600052602260045260246000fd5b600060028204905060018216806114ce57607f821691505b6020821081036114e1576114e0611487565b5b50919050565b60008190508160005260206000209050919050565b60006020601f8301049050919050565b600082821b905092915050565b6000600883026115497fffffffffffffffffffffffffffffffffffffffffffffffffffffffffffffffff8261150c565b611553868361150c565b95508019841693508086168417925050509392505050565b6000819050919050565b600061159061158b61158684610e28565b61156b565b610e28565b9050919050565b6000819050919050565b6115aa83611575565b6115be6115b682611597565b848454611519565b825550505050565b600090565b6115d36115c6565b6115de8184846115a1565b505050565b5b81811015611602576115f76000826115cb565b6001810190506115e4565b5050565b601f82111561164757611618816114e7565b611621846114fc565b81016020851015611630578190505b61164461163c856114fc565b8301826115e3565b50505b505050565b600082821c905092915050565b600061166a6000198460080261164c565b1980831691505092915050565b60006116838383611659565b9150826002028217905092915050565b61169c82610f46565b67ffffffffffffffff8111156116b5576116b4610cfd565b5b6116bf82546114b6565b6116ca828285611606565b600060209050601f8311600181146116fd57600084156116eb578287015190505b6116f58582611677565b86555061175d565b601f19841661170b866114e7565b60005b828110156117335784890151825560018201915060208501945060208101905061170e565b86831015611750578489015161174c601f891682611659565b8355505b6001600288020188555050505b505050505050565b7f4e487b7100000000000000000000000000000000000000000000000000000000600052603260045260246000fd5b7f4f6e6c792062757965722063616e20636f6e6669726d207468652070726f647560008201527f6374000000000000000000000000000000000000000000000000000000000000602082015250565b60006117f0602283610f51565b91506117fb82611794565b604082019050919050565b6000602082019050818103600083015261181f816117e3565b9050919050565b7f546865206964206973206e6f7420726567697374657264000000000000000000600082015250565b600061185c601783610f51565b915061186782611826565b602082019050919050565b6000602082019050818103600083015261188b8161184f565b9050919050565b7f5061792074686520657861637420616d6d6f756e74206f662070726963650000600082015250565b60006118c8601e83610f51565b91506118d382611892565b602082019050919050565b600060208201905081810360008301526118f7816118bb565b9050919050565b7f73656c6c65722063616e6e6f7420626520627579657200000000000000000000600082015250565b6000611934601683610f51565b915061193f826118fe565b602082019050919050565b6000602082019050818103600083015261196381611927565b905091905056fea2646970667358221220f8949db5092370557000e248e447e1c022c4f133214b9692344e1c503bd5958364736f6c63430008110033",
  "immutableReferences": {},
  "source": "// SPDX-License-Identifier: UNLICENSED\r\npragma solidity ^0.8.0;\r\npragma abicoder v2;\r\n\r\ncontract Ecommerce {\r\n    struct Product{\r\n        string title;\r\n        uint id;\r\n        uint price;\r\n        string desc;\r\n        string img;\r\n        address payable seller;\r\n        address payable buyer; \r\n        bool delivered;   \r\n    }\r\n    uint counter=0;\r\n    // mapping(address => uint[]) userProducts; \r\n\r\n    Product[] public products;\r\n\r\n    function registerProduct(string memory title1, uint price1, string memory desc1, string memory img1) public {\r\n        require(price1>0, \"Price should not be zero \");\r\n        \r\n        Product memory item;\r\n        item.title=title1;\r\n        item.price=price1 * 1 ether;\r\n        item.desc=desc1;\r\n        item.seller=payable(msg.sender);\r\n        item.id=counter;\r\n        item.img=img1;\r\n        counter++;\r\n        products.push(item);\r\n    }\r\n\r\n    function buy(uint id1) payable public{\r\n        require(products[id1].id<counter,\"The id is not registerd\");\r\n        require(products[id1].price==msg.value,\"Pay the exact ammount of price\");\r\n        require(products[id1].seller!=msg.sender,\"seller cannot be buyer\");\r\n        products[id1].buyer=payable(msg.sender);\r\n    }\r\n\r\n    function delivery(uint id1) payable public{\r\n        require(products[id1].buyer==msg.sender,\"Only buyer can confirm the product\");\r\n        products[id1].delivered=true;\r\n         products[id1].seller.transfer(products[id1].price);\r\n    }\r\n\r\n    function getBalance(address acc) public view returns (uint) {\r\n    return acc.balance;\r\n  }\r\n\r\n    function getProducts() public view returns(Product[] memory) {\r\n  return products;\r\n}\r\n\r\n}",
  "sourcePath": "D:\\sem7\\bct\\bct_ia\\contracts\\ecommerce.sol",
  "compiler": {
    "name": "solc",
    "version": "0.8.17+commit.8df45f5f.Emscripten.clang"
  },
  "schemaVersion": "3.4.10",
  "updatedAt": "2022-11-22T07:44:33.820Z",
  "networkType": "ethereum",
  "devdoc": {
    "kind": "dev",
    "methods": {},
    "version": 1
  },
  "userdoc": {
    "kind": "user",
    "methods": {},
    "version": 1
  }
}